:020000040000FA
:020000000528D1
:06000A008501860187015B
:10001000831603138801860100309F003F3085005E
:10002000831213202E2808100130860022200C3065
:10003000860022203C308600222008140800081484
:100040002220080088147120712088107120080077
:10005000081001308600222008140800C1309F00DB
:100060001F156C201F1932281E08880028205430C4
:1000700086001F203D3086001F2051203408860056
:100080001F20330886001F20320886001F202030E2
:1000900086001F20DF3086001F20433086001F208F
:1000A0003028B401B301B2011E081E07B500643048
:1000B0003502031C5E28B500B40A57280A30350201
:1000C000031C6528B500B30A5E283508B20030303D
:1000D000B204B304B40408003030A000A00B6E28B2
:1000E0000800FF30B100FF30B000B00B7528B10B35
:0400F0007328080069
:00000001FF
