:020000040000FA
:020000000528D1
:06000A008501860187015B
:100010008801831603130E309F003F308500860150
:100020008801013087008312BD21DB21F9211722CD
:100030003522532271228F22071C1F282328AD222C
:100040005720EA221428AD226C21EA221428D62255
:1000500000308600C82260200800DB2201308600C4
:10006000C82260200800E02202308600C8226020FA
:100070000800E52203308600C82260200800D6224E
:1000800004308600C82260200800DB22053086008C
:10009000C82260200800E02206308600C8226020C6
:1000A0000800E52207308600C82260200800C5301D
:1000B0009F0060201F195A281E08A000B200652862
:1000C0003030A300A30B622808000030A100A2007A
:1000D000B000B10020187B28A018852820198F288F
:1000E000A0199928201AA328A01AAD28201BB728E8
:1000F000A01BC42800292208023EA2003108013EAC
:10010000B100D420EA2020106A282208043EA20070
:100110003108023EB100D420EA20A0106A2822084B
:10012000083EA2003108043EB100D420EA2020118C
:100130006A282208163EA2003108083EB100D420E9
:10014000EA20A0116A282208323EA2003108163E99
:10015000B100D420EA2020126A282208633EA200BF
:100160003108323EB100D420EA20A0126A282208C9
:10017000253EA2002108013EA1003108643EB100E5
:10018000D420EA2020136A282208503EA200210829
:10019000023EA1003108283EB1003008013EB00007
:1001A000D420EA20A0136A2803100F302205093C4E
:1001B000031CE028F0302205903C031CE528E928C8
:1001C0000A30A2021030A207DA28A030A2020130C1
:1001D000A107080003100F303105093C031CF62865
:1001E000F0303105903C031CFB28E9280A30B102AD
:1001F0001030B107F028A030B1020130B00708007C
:10020000AD220B2127202D20EA22CB224C213320A6
:100210003920EA22142848308600C522F030320501
:10022000A900A90E0A302902031C1C290930290241
:10023000403E8600C52220292908303E8600C5227E
:100240000F303205A9000A302902031C2D2909307C
:100250002902403E8600C52231292908303E860009
:10026000C5220930A90020308600C522443086000E
:10027000C5220F303005303E8600C522F0303105F2
:10028000A900A90E303029078600C5220F3031059C
:10029000303E8600C522080056308600C5223D301B
:1002A0008600C5220F302105303E8600C5222E3043
:1002B0008600C522F0302205A900A90E303029079A
:1002C0008600C5220F302205303E8600C5227630DA
:1002D0008600C522EA220800C9301F159F00B821F8
:1002E0001F1970291E08860054308600C5223D3033
:1002F0008600C5221E0886009D2135088600C5227D
:1003000034088600C52233088600C52220308600C6
:10031000C522DF308600C52243308600C52220304A
:100320008600C52220308600C5223F204520CB22F2
:100330000B214B205120EA221428B501B401B3014E
:100340001E081E07B60064303602031CAA29B60038
:10035000B50AA3290A303602031CB129B600B40A33
:10036000AA293608B3003030B304B404B504080039
:100370003030C300C30BBA29080008104030860093
:10038000BF22081403308600BF2204308600BF223B
:1003900004308600BF2204308600BF22043086006D
:1003A000BF2208308600BF2208308600BF220830F6
:1003B0008600BF220800081048308600BF220814BB
:1003C00018308600BF2204308600BF220430860029
:1003D000BF2204308600BF2204308600BF220230D4
:1003E0008600BF2202308600BF2203308600BF2273
:1003F0000800081050308600BF2208141030860014
:10040000BF2210308600BF2210308600BF2210307D
:100410008600BF2210308600BF2210308600BF2227
:1004200010308600BF221F308600BF22080008104F
:1004300058308600BF22081401308600BF220130E8
:100440008600BF2201308600BF2201308600BF2215
:1004500001308600BF2201308600BF2201308600B5
:10046000BF221F308600BF220800081060308600BF
:10047000BF2208140F308600BF2210308600BF2232
:1004800010308600BF2210308600BF221030860058
:10049000BF2210308600BF2210308600BF221030ED
:1004A0008600BF220800081068308600BF220814AA
:1004B0001E308600BF2201308600BF220130860038
:1004C000BF2201308600BF2201308600BF220130EA
:1004D0008600BF2201308600BF2201308600BF2285
:1004E0000800081070308600BF2208141030860003
:1004F000BF2210308600BF2210308600BF2210308D
:100500008600BF2208308600BF2204308600BF224A
:1005100002308600BF2201308600BF22080008108A
:1005200078308600BF22081401308600BF220130D7
:100530008600BF2201308600BF2201308600BF2224
:1005400002308600BF2204308600BF2208308600B9
:10055000BF2210308600BF2208000810013086003C
:10056000B9220C308600B9223C308600B92208142A
:1005700008008814F722F7228810F7220800881450
:10058000F722F7228810F72208000814B922080081
:100590000814BF2208000810C0308600B9220800E5
:1005A000081001308600BF220814080008108D30A2
:1005B0008600BF22080008108E308600BF22080087
:1005C0000810CD308600BF2208000810CE3086000B
:1005D000BF2208000A30A8000A30A7003230A60067
:1005E000A60BF02AA50BEE2AA80BEC2A0800203057
:1005F000A5002030A400A40BFB2AA50BF92A0800B3
:00000001FF
