:020000040000FA
:020000000528D1
:06000A008601880185015A
:10001000831603138601880106309F003F30850058
:10002000831240200030A4000508240603192A2862
:100030000130A50005082506031930280230A60066
:1000400005082606031933280330A70005082706EC
:1000500003193728E7218E21FC21B321062212281B
:10006000E7215E201228E721FC21BB201228E7218E
:100070003A201228012200308600F92106220800C9
:10008000081040308600F321081404308600F32164
:1000900004308600F3210E308600F3210E308600F6
:1000A000F3211F308600F32111308600F321113037
:1000B0008600F32111308600F321080045308600C8
:1000C000F92144308600F92147308600F92141307A
:1000D0008600F92152308600F92120308600F9216E
:1000E00042308600F92141308600F92152308600E5
:1000F000F92143308600F92145308600F9214E3040
:100100008600F92141308600F92153308600F9211B
:1001100008101C308600F3211C308600F3211C30AF
:100120008600F3211C308600F3211C308600F32169
:100130001C308600F3211C308600F3211C30860021
:10014000F3211C308600F3211C308600F3211C3083
:100150008600F3211C308600F3211C308600F32139
:100160001C308600F3211C308600F3211C308600F1
:10017000F321081408001C308600F3211C3086008F
:10018000F3211C308600F3211C308600F3211C3043
:100190008600F3211C308600F3211C308600F321F9
:1001A0001C308600F3211C308600F3211C308600B1
:1001B000F3211C308600F3211C308600F3211C3013
:1001C0008600F3211C308600F3211C308600F321C9
:1001D0001C308600F32145308600F921443086002A
:1001E000F92147308600F92141308600F92152304B
:1001F0008600F92120308600F92142308600F9215D
:1002000041308600F92152308600F92143308600C2
:10021000F92145308600F9214E308600F921413020
:100220008600F92153308600F92108101830860025
:10023000F32118308600F32118308600F32118309E
:100240008600F32118308600F32118308600F32150
:1002500018308600F32118308600F321183086000C
:10026000F32118308600F32118308600F32118306E
:100270008600F32118308600F32118308600F32120
:1002800018308600F32118308600F32118308600DC
:10029000F32118308600F32118308600F32118303E
:1002A0008600F32118308600F32118308600F321F0
:1002B00018308600F32118308600F32118308600AC
:1002C000F32118308600F32118308600F32118300E
:1002D0008600F32118308600F32118308600F321C0
:1002E00018308600F32118308600F3210814080026
:1002F00056308600F92141308600F9214C308600C5
:10030000F92145308600F92152308600F921493023
:100310008600F92141308600F92108004530860029
:10032000F92144308600F92147308600F921413017
:100330008600F92152308600F92120308600F9210B
:1003400044308600F92141308600F9214E30860084
:10035000F92149308600F92145308600F9214C30D9
:100360008600F921080042308600F92141308600DC
:10037000F92152308600F92143308600F9214530B9
:100380008600F9214E308600F92141308600F9219E
:1003900053308600F92120308600F9214D30860047
:1003A000F92141308600F92152308600F92154307C
:1003B0008600F92149308600F9214E308600F92166
:1003C00045308600F9215A308600F92108000810CE
:1003D00001308600F3210C308600F3213C3086008A
:1003E000F321081408008814132213228810132202
:1003F00008000814F32108000810C0308600F3211B
:1004000008000810C7308600F32108000030A10062
:100410008000A2000030A300A30B0C2AA20B0A2A22
:10042000A10B082A0800FF30B100FF30B000B00B6C
:08043000172AB10B152A080080
:00000001FF
