:020000040000FA
:020000000528D1
:06000A0085018601890159
:100010008316031302309F00860188010330890094
:100020008312081088100811A501B42009080139AD
:1000300082071C2825281628E722C1309F002F2080
:1000400036208620EF20E2201628FA21C9309F00B2
:100050002F20932059208620F720E22016281F15F4
:100060008E201F1931281E08A4000800A701A8012E
:10007000A90103102408A5002508A6006430A502E4
:10008000031853282608A5002508A6000A30A50253
:10009000031855282608A5002508A6000130A5024A
:1000A000031857280800A70A3C28A80A4428A90AC8
:1000B0004C28A701A801A90103103408A5002508B0
:1000C000A6006430A50203187D2877282608A5001D
:1000D0002508A6000A30A502031879282608A500DD
:1000E0002508A6000130A50203187B280800A70AEE
:1000F0005F28A80A6828A90A7028B208031D832867
:100100002608A5006828B203A70A5F282408F0394A
:10011000AB00AB0E24080F39AC0008003030A10052
:10012000A10B90280800B001B1016430AD00310886
:100130002407B1000318B00A0310AD0B9728333021
:10014000B102031CB0030310AF283008031D9F2821
:1001500003103330B102031C0800B40AA928B40A02
:10016000031DA528B20AA5280810D5200130860055
:10017000CD20D5200810D5200C308600CD20D520EC
:100180000810D5203C308600CD20D5200810D52081
:100190000C308600CD20D520080008150000000096
:1001A000000000000000081108000230A100C83063
:1001B000A2005230A300A30BDB28A20BD928A10B6D
:1001C000D72808008030A1005030A2008030A30062
:1001D000A30BE828A20BE628A10BE42808000810CE
:1001E00001308600CD20D5200814FF20080008101B
:1001F00001308600CD20D52008146F21080008109A
:1002000002308600CD20D5200814D5205430860039
:10021000CD20D52065308600CD20D5206D308600DC
:10022000CD20D52070308600CD20D5203A308600F4
:10023000CD20D5202808303E8600CD20D5202908A5
:10024000303E8600CD20D520DF308600CD20D52061
:1002500043308600CD20D52020308600CD20D5200B
:1002600020308600CD20D520412420308600CD20AE
:10027000D5200810C0308600CD20D5200814D52008
:1002800048308600CD20D52045308600CD20D520B1
:1002900058308600CD20D5203A308600CD20D5209C
:1002A0002B08093C031863292B08373E8600CD2014
:1002B000D5202C08093C031869292C08373E8600F4
:1002C000CD20D52008002B08303E8600CD20D5203B
:1002D00059292C08303E8600CD20D52062290810EF
:1002E00002308600CD20D5200814D5205630860057
:1002F000CD20D5206F308600CD20D5206C308600F3
:10030000CD20D5203A308600CD20D5202708303E9C
:100310008600CD20D5202E308600CD20D52028087F
:10032000303E8600CD20D5202908303E8600CD20E5
:10033000D5205B308600CD20D52056308600CD20DC
:10034000D5205D308600CD20D52020308600CD2000
:10035000D520F4230810C0308600CD20D520081405
:10036000D52048308600CD20D52045308600CD20D0
:10037000D52058308600CD20D5203A308600CD20BB
:10038000D5202B08093C0318D4292B08373E8600BA
:10039000CD20D5202C08093C0318DA292C08373E3B
:1003A0008600CD20D520E0292B08303E8600CD20C8
:1003B000D520CA292C08303E8600CD20D520E02942
:1003C00020308600CD20D52020308600CD20D520BD
:1003D00020308600CD20D52020308600CD20D520AD
:1003E00020308600CD20D52020308600CD20D5209D
:1003F00009240800081040308600CD20D5200814BC
:1004000000308600CD20D5200E308600CD20D520AE
:1004100011308600CD20D52011308600CD20D5208A
:1004200011308600CD20D52011308600CD20D5207A
:1004300011308600CD20D52011308600CD20D5206A
:1004400000308600CD20D5200E308600CD20D5206E
:1004500011308600CD20D52011308600CD20D5204A
:1004600011308600CD20D52011308600CD20D5203A
:1004700013308600CD20D52017308600CD20D52022
:1004800000308600CD20D5200E308600CD20D5202E
:1004900011308600CD20D52011308600CD20D5200A
:1004A00013308600CD20D52017308600CD20D520F2
:1004B0001F308600CD20D5201F308600CD20D520CE
:1004C00000308600CD20D5200E308600CD20D520EE
:1004D0001F308600CD20D5201F308600CD20D520AE
:1004E0001F308600CD20D5201F308600CD20D5209E
:1004F0001F308600CD20D5201F308600CD20D5208E
:1005000011308600CD20D52011308600CD20D52099
:1005100011308600CD20D52011308600CD20D52089
:1005200011308600CD20D52011308600CD20D52079
:1005300011308600CD20D5201F308600CD20D5205B
:1005400011308600CD20D52011308600CD20D52059
:1005500011308600CD20D52011308600CD20D52049
:1005600013308600CD20D52017308600CD20D52031
:100570001F308600CD20D5201F308600CD20D5200D
:1005800017308600CD20D520FF308600CD20D52025
:10059000FF308600CD20D520FF308600CD20D5202D
:1005A000FF308600CD20D520FF308600CD20D5201D
:1005B000FF308600CD20D520FF308600CD20D5200D
:1005C000081001308600CD20D5200814080008103E
:1005D00040308600CD20D52008141F308600CD2065
:1005E000D52010308600CD20D52008308600CD20C3
:1005F000D52004308600CD20D52004308600CD20C3
:10060000D52002308600CD20D52002308600CD20B6
:10061000D52001308600CD20D5201F308600CD208A
:10062000D52001308600CD20D52002308600CD2097
:10063000D52004308600CD20D52004308600CD2082
:10064000D52008308600CD20D52008308600CD206A
:10065000D52010308600CD20D5201F308600CD203B
:10066000D52010308600CD20D52008308600CD2042
:10067000D52004308600CD20D52004308600CD2042
:10068000D52003308600CD20D52003308600CD2034
:10069000D52001308600CD20D5201F308600CD200A
:1006A000D52001308600CD20D52002308600CD2017
:1006B000D52004308600CD20D52004308600CD2002
:1006C000D52018308600CD20D52018308600CD20CA
:1006D000D52010308600CD20D5201F308600CD20BB
:1006E000D52010308600CD20D52008308600CD20C2
:1006F000D52007308600CD20D52007308600CD20BC
:10070000D52003308600CD20D52003308600CD20B3
:10071000D52001308600CD20D5201F308600CD2089
:10072000D52001308600CD20D52002308600CD2096
:10073000D5201C308600CD20D5201C308600CD2051
:10074000D52018308600CD20D52018308600CD2049
:10075000D52010308600CD20D5201F308600CD203A
:10076000D5201F308600CD20D5200F308600CD202B
:10077000D52007308600CD20D52007308600CD203B
:10078000D52003308600CD20D52003308600CD2033
:10079000D52001308600CD20D5201F308600CD2009
:1007A000D5201F308600CD20D5201E308600CD20DC
:1007B000D5201C308600CD20D5201C308600CD20D1
:1007C000D52018308600CD20D52018308600CD20C9
:1007D000D52010308600CD20D520081001308600AD
:1007E000CD20D5200814080033302402031C1E2C11
:1007F00066302402031C1E2C99302402031C232C77
:10080000CC302402031C282C03308600CD20D520B8
:10081000080033302402031C2D2C66302402031CF4
:10082000322C99302402031C372CCC302402031CB8
:100830003C2CFF308600CD20D520080000308600FB
:10084000CD20D520082C01308600CD20D520082CC5
:1008500002308600CD20D520082C04308600CD2023
:10086000D5201D2C05308600CD20D5201D2C06302E
:100870008600CD20D5201D2CFF308600CD20D52030
:100880001D2C11302402031C562C43302402031C5F
:100890005F2C74302402031C682C06308600CD20A7
:1008A000D52007308600CD20D520080000308600F6
:1008B000CD20D52001308600CD20D5200800023083
:1008C0008600CD20D52003308600CD20D52008001D
:1008D00004308600CD20D52005308600CD20D520DF
:0208E00008000E
:00000001FF
