:020000040000FA
:020000000528D1
:06000A008501860183164A
:1000100003130E309F003F30850086018801831254
:100020008510C3218221D821A721851C1528851080
:10003000DD21DD21DD21C3213E21D8216921851C5F
:100040001F28C5309F002A201F1924281E08A00041
:10005000B2002F283030A300A30B2C28080000305A
:10006000A100A200B000B10020184528A0184F2818
:1000700020195928A0196328201A6D28A01A77285A
:10008000201B8128A01B8E28CA282208023EA2001D
:100090003108013EB1009E20B420201034282208EF
:1000A000043EA2003108023EB1009E20B420A01000
:1000B00034282208083EA2003108043EB1009E20E8
:1000C000B420201134282208163EA2003108083E30
:1000D000B1009E20B420A01134282208323EA20094
:1000E0003108163EB1009E20B42020123428220888
:1000F000633EA2003108323EB1009E20B420A0121F
:1001000034282208253EA2002108013EA100310822
:10011000643EB1009E20B420201334282208503EB3
:10012000A2002108023EA1003108283EB10030089B
:10013000013EB0009E20B420A013342803100F30DD
:100140002205093C031CAA28F0302205903C031C20
:10015000AF28B3280A30A2021030A207A428A0308A
:10016000A2020130A107080003100F303105093C3D
:10017000031CC028F0303105903C031CC528B3286F
:100180000A30B1021030B107BA28A030B1020130F4
:10019000B0070800C321CF20D821122121284830E0
:1001A0008600D521F0303205A900A90E0A302902B7
:1001B000031CE02809302902403E8600D521E428AE
:1001C0002908303E8600D5210F303205A9000A30BB
:1001D0002902031CF12809302902403E8600D5215E
:1001E000F5282908303E8600D5210930A9002030A5
:1001F0008600D521A90BF72844308600D5210F3081
:100200003005303E8600D521F0303105A900A90E19
:10021000303029078600D5210F303105303E860069
:10022000D521080020308600D52120308600D52138
:1002300020308600D52120308600D521563086001A
:10024000D5213D308600D5210F302105303E860076
:10025000D5212E308600D521F0302205A900A90E27
:10026000303029078600D5210F302205303E860028
:10027000D52176308600D521DD2108004730860063
:10028000D5216F308600D5216E308600D5217A3099
:100290008600D52161308600D5216C308600D521BD
:1002A00065308600D5217A308600D5212030860041
:1002B000D52143308600D5216F308600D5216C30A2
:1002C0008600D52169308600D5216E308600D52183
:1002D000080046308600D52165308600D521723071
:1002E0008600D5216E308600D52161308600D5216B
:1002F0006E308600D52164308600D5216F308600AF
:10030000D521080047308600D5216F308600D521E1
:1003100064308600D5216F308600D5217930860083
:10032000D52120308600D5214A308600D521753070
:100330008600D52161308600D52172308600D52116
:1003400065308600D5217A308600D52108004330FB
:100350008600D52161308600D52172308600D521F6
:100360006C308600D5216F308600D5217330860031
:10037000D52120308600D52145308600D5212E306C
:100380008600D5210800081301308600CF210C30EB
:100390008600CF213C308600CF2108140800881742
:1003A000EC21EC218813EC2108000817CF2108006C
:1003B0000813C0308600CF2108000A30A8000A3098
:1003C000A7003230A60000000000A60BE329A50B11
:1003D000E129A80BDF2908002030A5002030A40067
:0A03E000A40BF029A50BEE2908007C
:00000001FF
